:100000000C9436000C945E000C945E000C945E0020
:100010000C945E000C945E000C945E000C945E00E8
:100020000C945E000C945E000C945E000C945E00D8
:100030000C945E000C945E000C945E000C945E00C8
:100040000C945E000C945E000C945E000C945E00B8
:100050000C945E000C945E000C945E000C945E00A8
:100060000C945E000C945E00ED00FA0011241FBE9B
:10007000CFEFD8E0DEBFCDBF11E0A0E0B1E0E2EF0E
:10008000FDE002C005900D92A433B107D9F711E04D
:10009000A4E3B1E001C01D92A933B107E1F710E07C
:1000A000CAE6D0E004C02297FE010E94B002C83622
:1000B000D107C9F70E9460000C94EC060C94000074
:1000C000DF93CF9300D000D000D0CDB7DEB781E072
:1000D0008E831D8284E391E00E944F0119821A826F
:1000E0001B821C8216C089819A81AB81BC810296D9
:1000F000A11DB11D89839A83AB83BC8389819A81B9
:10010000AB81BC810196A11DB11D89839A83AB830C
:10011000BC8320E089819A81AB81BC81803B3DEA30
:10012000930731E0A30730E0B30708F421E022236E
:10013000D1F68E81282F30E08E818F5F8E8384E30D
:1001400091E0B9010E9408028E81882F90E02FEF84
:1001500030E0A901481B590BCA019C0184E391E0DE
:10016000B9010E945B028E81282F30E084E391E088
:10017000B9010E94B5018D818F5F8D83AFCFDF9371
:10018000CF9300D000D0CDB7DEB79A8389837C832C
:100190006B8389819A818130910551F48B819C8197
:1001A0002FEF8F3F920721F484E391E00E941F011B
:1001B00089819A81009751F48B819C812FEF8F3F29
:1001C000920721F484E391E00E9443010F900F9085
:1001D0000F900F90CF91DF910895DF93CF93CDB71C
:1001E000DEB781E090E06FEF7FEF0E94BF00CF911C
:1001F000DF910895DF93CF93CDB7DEB780E090E035
:100200006FEF7FEF0E94BF00CF91DF910895DF93E2
:10021000CF9300D0CDB7DEB79A83898384EC90E08A
:1002200020E130E0FC013183208382EC90E026E085
:10023000FC0120830F900F90CF91DF910895DF9301
:10024000CF9300D0CDB7DEB79A83898384EC90E05A
:1002500020E130E0FC013183208382EC90E026E055
:10026000FC0120830F900F90CF91DF910895DF93D1
:10027000CF9300D0CDB7DEB79A8389830F900F90CC
:10028000CF91DF910895DF93CF9300D0CDB7DEB744
:100290009A8389830F900F90CF91DF910895DF9318
:1002A000CF9300D0CDB7DEB79A83898381EC90E0FD
:1002B00028E1FC0120830F900F90CF91DF910895EA
:1002C000DF93CF9300D0CDB7DEB79A83898381ECDB
:1002D00090E0FC0110820F900F90CF91DF91089574
:1002E000DF93CF9300D00F92CDB7DEB79A83898387
:1002F0006B830F900F900F90CF91DF910895DF9354
:10030000CF9300D000D0CDB7DEB79A8389837C83AA
:100310006B831BC080EC90E0FC018081882F90E013
:100320008072907020E0009709F421E0222391F779
:1003300086EC90E02B813C81F9012081FC01208337
:100340008B819C8101969C838B838B819C81FC019A
:100350008081882309F081E08823E1F60F900F90D7
:100360000F900F90CF91DF910895DF93CF93CDB78A
:10037000DEB728970FB6F894DEBF0FBECDBF9E83C1
:100380008D8378876F8380E490E061E070E00E9465
:10039000B4029C838B838B819C819A8389838B811C
:1003A0009C81009759F100D000D000D08DB79EB746
:1003B00001962B813C81FC013183208320E031E0D8
:1003C000FC01338322832F813885FC01358324830C
:1003D0000E9419048DB79EB706960FB6F8949EBF7B
:1003E0000FBE8DBF8D819E812B813C81B9010E9402
:1003F0007F0189819A810E947B0301C000002896B9
:100400000FB6F894DEBF0FBECDBFCF91DF91089538
:10041000DF93CF93CDB7DEB728970FB6F894DEBF42
:100420000FBECDBF9E838D8378876F8380E490E07D
:1004300061E070E00E94B4029C838B838B819C817D
:100440009A8389838B819C81009759F100D000D0D9
:1004500000D08DB79EB701962B813C81FC01318382
:1004600020832CE031E0FC01338322832F81388507
:10047000FC01358324830E9419048DB79EB706962C
:100480000FB6F8949EBF0FBE8DBF8D819E812B81CC
:100490003C81B9010E947F0189819A810E947B037E
:1004A00001C0000028960FB6F894DEBF0FBECDBF86
:1004B000CF91DF910895DF93CF93CDB7DEB7289723
:1004C0000FB6F894DEBF0FBECDBF9E838D837887B5
:1004D0006F8380E490E061E070E00E94B4029C834E
:1004E0008B838B819C819A8389838B819C810097EC
:1004F00059F100D000D000D08DB79EB701962B8166
:100500003C81FC01318320832DE131E0FC01338308
:1005100022832F813885FC01358324830E941904AE
:100520008DB79EB706960FB6F8949EBF0FBE8DBFCF
:100530008D819E812B813C81B9010E947F0189813F
:100540009A810E947B0301C0000028960FB6F894A0
:10055000DEBF0FBECDBFCF91DF910895EE0FFF1F1D
:100560000590F491E02D0994EF92FF920F931F9361
:10057000CF93DF93689F8001699F100D789F100DC6
:100580001124C8010E94D902E82EE7017E01F92E4C
:10059000E701E114F10431F08E2D60E070E0A80174
:1005A0000E9412047E01CE01CDB7DEB7E6E00C94C6
:1005B000DD06EF92FF920F931F93CF93DF9382306C
:1005C000910510F482E090E0C0913701D09138019C
:1005D00020E030E040E050E029C068817981681770
:1005E0007907D8F06817790779F48A819B812115FA
:1005F000310521F0F9019383828304C0909338017F
:1006000080933701DE012AC04115510519F06417A6
:10061000750718F4FE01AB01D9019E017A816B8147
:10062000E72EE7017E01062FF62EE7012097A9F6B7
:1006300041155105F9F0481B590B4430510580F420
:1006400082819381109729F013969C938E93129731
:1006500004C09093380180933701DF01129645C0A2
:10066000DF01A40FB51F8D939D93425050405183DD
:1006700040833BC020913501309136012115310571
:1006800041F42091300130913101309336012093B3
:10069000350120913201309133012115310541F4AA
:1006A0002DB73EB740912E0150912F01241B350BE1
:1006B000A0913501B0913601A217B307A0F42A1B0F
:1006C0003B0B2817390778F0AC014E5F5F4F2417BA
:1006D000350748F04A0F5B1F5093360140933501B0
:1006E0008D939D9302C0A0E0B0E0CD01CDB7DEB701
:1006F000E6E00C94DD06CF93DF93009709F48FC0FA
:10070000FC01329713821282609137017091380197
:100710006115710581F420813181280F391F809185
:100720003501909136018217930761F5F0933601F8
:10073000E093350174C0EB0180E090E0CE17DF0755
:1007400040F42A813B81CE012115310501F1E901F7
:10075000F5CFD383C283DF014D915D919D01240FBD
:10076000351FC217D30761F428813981240F351F43
:100770002E5F3F4F318320832A813B813383228345
:10078000009729F4F0933801E093370148C0DC0169
:100790001396FC93EE931297EC0149915991C40F73
:1007A000D51FEC17FD0779F420813181240F351F07
:1007B0002E5F3F4F11963C932E93228133811396E7
:1007C0003C932E931297E0E0F0E0DB0112968D91BE
:1007D0009C911397009721F0E62FF72FBC01F5CFDE
:1007E0009B012E5F3F4FDB018D919C911197820FF2
:1007F000931F40913501509136014817590779F4FC
:10080000309729F4109238011092370102C01382F8
:100810001282225030403093360120933501DF910F
:10082000CF910895DC0101C06D9341505040E0F735
:100830000895AEE0B0E0EFE1F4E00C94C3060D895A
:100840001E8986E08C831A8309838FEF9FE79E833E
:100850008D839E01275E3F4FCE0101966F89788D73
:10086000A9010E943C04EF81F885E00FF11F10827E
:100870002E96E4E00C94DF06ACE0B0E0E2E4F4E0B5
:100880000C94B6066C012B018A01FC0117821682BA
:10089000838181FD03C02FEF3FEFC2C14E01089459
:1008A000811C911C6FE3362EF6019381F20193FDBA
:1008B000859193FF81912F01882309F4AEC1853280
:1008C00039F493FD859193FF81912F01853229F4AD
:1008D00090E0B6010E942B06E7CFEE24FF2420E033
:1008E0002032B0F48B3269F08C3228F4803251F02F
:1008F000833271F40BC08D3239F0803349F42160BA
:100900002CC02260246029C0286027C0206125C037
:1009100027FD2CC0382F30533A3098F426FF08C0FA
:100920008E2D880FE82EEE0CEE0CE80EE30E15C0AF
:100930008F2D880FF82EFF0CFF0CF80EF30E20629F
:100940000CC08E3221F426FD68C1206406C08C36AE
:1009500011F4206802C0883649F4F20193FD8591B4
:1009600093FF81912F01882309F0BACF982F9554D6
:10097000933018F09052933020F40C5F1F4F39825F
:100980000DC0833631F0833771F0833509F058C0DC
:100990001EC0F801808189830E5F1F4F540151E012
:1009A000652E712C12C0F801A080B18026FD03C015
:1009B0006FEF7FEF02C06E2D70E00E5F1F4FC5011D
:1009C0002C870E9420063C012C852F7713C0F8014C
:1009D000A080B18026FD03C06FEF7FEF02C06E2DB7
:1009E00070E00E5F1F4FC5012C870E9415063C0169
:1009F0002C85206823FF09C01FC080E290E0B6016B
:100A00002C870E942B06FA942C858F2D90E0681677
:100A1000790698F311C0F50127FD859127FF819193
:100A20005F0190E0B6012C870E942B062C85F11007
:100A3000FA940894610871086114710461F7EAC0BE
:100A4000843611F0893651F527FF08C0F80160811E
:100A50007181828193810C5F1F4F0AC0F801408130
:100A60005181BA01882777FD8095982F0E5F1F4F1F
:100A70004FE6B42EB22297FF09C0909580957095ED
:100A800061957F4F8F4F9F4FF0E8BF2AA4012AE066
:100A900030E00E945706782E781843C0853731F42D
:100AA0003FEEB32EB2222AE030E023C099EFB92EF8
:100AB000B2228F3661F0803720F4883509F0ADC05E
:100AC00012C0803739F0883709F0A7C005C028E088
:100AD00030E00FC020E1B22AB4FE02C084E0B82AA0
:100AE00020E130E006C0B4FE02C0E6E0BE2A20E10C
:100AF00032E0B7FE08C0F801608171818281938184
:100B00000C5F1F4F07C0F8016081718180E090E0A9
:100B10000E5F1F4FA4010E945706782E7818FFE73A
:100B2000BF22B6FE0BC02EEFB2227E1438F4B4FE04
:100B300007C0B2FC05C08FEEB82202C0A72C01C0CE
:100B4000AE2C8B2DB4FE0DC0FE01E70DF11D908182
:100B5000903319F4E9EEBE2207C0A394B2FE04C09C
:100B600002C0867809F0A3946B2CB3FC14C0B0FECD
:100B70000FC0AF1410F0E72C0BC0E72CEF0CEA18F5
:100B8000AF2C06C080E290E0B6010E942B06A39431
:100B9000AF14C0F304C0AF1410F4FA1801C0FF245E
:100BA00064FE0FC080E390E0B6010E942B0662FE57
:100BB0001DC061FC03C088E790E00EC088E590E0AE
:100BC0000BC0862D867891F061FE02C08BE201C0D9
:100BD00080E2B7FC8DE290E0B6010E942B0606C0D1
:100BE00080E390E0B6010E942B06EA947E14C0F3E5
:100BF0007A94F401E70DF11D808190E0B6010E9426
:100C00002B067720A9F706C080E290E0B6010E948B
:100C10002B06FA94FF20C1F747CEF60126813781D3
:100C2000C9012C96E1E10C94D206FC0105906150BB
:100C300070400110D8F7809590958E0F9F1F0895F2
:100C4000FC016150704001900110D8F7809590959B
:100C50008E0F9F1F08950F931F93CF93DF938C01E7
:100C6000EB018B8181FF1BC082FF0DC02E813F8174
:100C70008C819D812817390764F4E881F9810193FB
:100C8000F983E88306C0E885F985802F09950097E8
:100C900031F48E819F8101969F838E8302C00FEF76
:100CA0001FEFC801DF91CF911F910F910895FA01B5
:100CB000AA27283051F1203181F1E8946F936E7F9B
:100CC0006E5F7F4F8F4F9F4FAF4FB1E03ED0B4E08C
:100CD0003CD0670F781F891F9A1FA11D680F791FCD
:100CE0008A1F911DA11D6A0F711D811D911DA11DDE
:100CF00020D009F468943F912AE0269F11243019EE
:100D0000305D3193DEF6CF010895462F4770405D88
:100D10004193B3E00FD0C9F7F6CF462F4F70405D37
:100D20004A3318F0495D31FD4052419302D0A9F792
:100D3000EACFB4E0A6959795879577956795BA958C
:100D4000C9F700976105710508959B01AC010A2E52
:100D500006945795479537952795BA95C9F7620F29
:100D6000731F841F951FA01D08952F923F924F92CD
:100D70005F926F927F928F929F92AF92BF92CF922B
:100D8000DF92EF92FF920F931F93CF93DF93CDB734
:100D9000DEB7CA1BDB0B0FB6F894DEBF0FBECDBFAC
:100DA00009942A88398848885F846E847D848C847D
:100DB0009B84AA84B984C884DF80EE80FD800C8186
:100DC0001B81AA81B981CE0FD11D0FB6F894DEBF69
:100DD0000FBECDBFED01089510E0CAE6D0E004C01B
:100DE000FE010E94B0022296CC36D107C9F7F894D2
:020DF000FFCF33
:100DF2003C612F64202D2025643E0A003C6C2E723B
:100E02002E692E722E202D2025643E0A003C6D2E66
:100E1200722E692E722E202D2025643E0A0020009B
:040E22003901000092
:00000001FF
